:02000000062FC9
:1000060083120313F801F9011030FC00710DF80D8D
:10001600F90D7408F8027508031C750FF902031828
:100026001B287408F80775080318750FF9070310DD
:0A003600F00DF10DFC0B0928080085
:10004000403083120313F0001F30F100F201F3017E
:020050000800A6
:1000520083120313B203B2033208003C031836289A
:10006200B2030000000000002D2800000000000084
:0600720000000000080080
:1000780083120313FB01FA01F901F801A001730DC2
:10008800F80D7408F8027508031C750FF902760854
:10009800031C760FFA027708031C770FFB02000196
:1000A800031C0130A002F30D0730FC00730DF80D9E
:1000B800F90DFA0DFB0DA00D7408731C7528F802D4
:1000C8007508031C750FF9027608031C760FFA02EF
:1000D8007708031C770FFB020001031C0130A00204
:1000E8008628F80775080318750FF90776080318A6
:1000F800760FFA0777080318770FFB070001031834
:100108000130A007F30DFC0B5A28720DF80DF90DFC
:10011800FA0DFB0DA00D7408731CA428F8027508CD
:10012800031C750FF9027608031C760FFA0277088C
:10013800031C770FFB020001031C0130A002B52845
:10014800F80775080318750FF90776080318760F6E
:10015800FA0777080318770FFB0700010318013027
:10016800A007F20D0730FC00720DF80DF90DFA0D1D
:10017800FB0DA00D7408721CD328F8027508031C27
:10018800750FF9027608031C760FFA027708031C2C
:10019800770FFB020001031C0130A002E428F807D6
:1001A80075080318750FF90776080318760FFA070C
:1001B80077080318770FFB07000103180130A00721
:1001C800F20DFC0BB828710DF80DF90DFA0DFB0DA9
:1001D800A00D7408721C0229F8027508031C750F1B
:1001E800F9027608031C760FFA027708031C770FCA
:1001F800FB020001031C0130A0021329F80775084F
:100208000318750FF90776080318760FFA077708A9
:100218000318770FFB07000103180130A007F10D41
:100228000730FC00710DF80DF90DFA0DFB0DA00D4E
:100238007408711C3129F8027508031C750FF9023E
:100248007608031C760FFA027708031C770FFB0267
:100258000001031C0130A0024229F80775080318A1
:10026800750FF90776080318760FFA077708031849
:10027800770FFB07000103180130A007F10DFC0BF5
:100288001629700DF80DF90DFA0DFB0DA00D740867
:10029800711C6029F8027508031C750FF9027608AD
:1002A800031C760FFA027708031C770FFB02000184
:1002B800031C0130A0027129F80775080318750F8F
:1002C800F90776080318760FFA0777080318770FE7
:1002D800FB07000103180130A007F00D0730FC00F0
:1002E800700DF80DF90DFA0DFB0DA00D7408701CBA
:1002F8008F29F8027508031C750FF9027608031C8C
:10030800760FFA027708031C770FFB020001031C23
:100318000130A002A029F80775080318750FF9071E
:1003280076080318760FFA0777080318770FFB0784
:10033800000103180130A007F00DFC0B7429701898
:10034800B3297408F80775080318750FF9077608B4
:100358000318760FFA0777080318770FFB070800CA
:10036800831203132230FC00F801F901FA01FB01A2
:10037800FC030319EA290310FB0CFA0CF90CF80C1E
:10038800F30CF20CF10CF00C031CBC29FC03031950
:10039800DC297408F80775080318750FF90776083B
:1003A8000318760FFA0777080318770FFB07C02999
:1003B8007408F80775080318750FF9077608031805
:0E03C800760FFA0777080318770FFB07080077
:1003D6002020E830F4000330F500F601F701B421DF
:1003E6007008AE007108AF007208B0007308B10063
:1003F6002608F4002708F500F601F7013C207008EE
:10040600AE007108AF007208B0007308B100700842
:10041600F5007108F6007208F7007308F800F80C8A
:10042600F70CF60CF50CF813F80CF70CF60CF50CAB
:10043600F8137508F0007608F1007708F2007808DE
:10044600F300F30CF20CF10CF00CF3137008AA0095
:100456007108AB0020202808F4002908F500F601F1
:10046600F701B4212A08F9002B08FA00FB01FC0168
:100476000330F8007908F4007A08F5007B08F600E6
:100486007C08F700780803194F2AF40DF50DF60DD0
:10049600F70D7410FF3E462A3C207008AE00710826
:1004A600AF007208B0007308B1000A30F4000030E3
:1004B600F5002A08F0002B08F10003207008AA00B6
:1004C6007108AB0000307102031D6B2A0330700205
:1004D60003186E2ABB2A220884003108003C031D3B
:1004E6007E2A3008003C031D7E2A2F08003C031D8F
:1004F6007E2A2E08003C0318B92A210880042B08FE
:100506000319952AAC01AD0100302D02031D8D2A79
:100516002B082C020318952AB2012920AC0A0319CC
:10052600AD0A872A2A08B2002920250880052B084B
:100536000319AD2AAC01AD0100302D02031DA52A19
:100546002B082C020318AD2AB2012920AC0A031984
:10055600AD0A9F2A2A08B20029200130AE02031CE8
:10056600AF02031CB002031CB102702A25088005E5
:0205760008007B
:10057800831203132608A2002708F1000130F000B7
:1005880071080319CB2AF00D7010FF3EC52A7008B8
:10059800A100F0097008A5008030260784007008C3
:0A05A8008005841370088005080028
:1005B200943083120313A6000230A700FA30A80079
:0605C200A901EB21080075
:1005C800A43083120313A6000330A700FA30A80052
:0605D800A901EB2108005F
:1005DE00B73083120313A6000730A700FA30A80025
:0605EE00A901EB21080049
:1005F400703083120313A6000330A700FA30A8005A
:06060400A901EB21080032
:10060A004B3083120313A6000230A700FA30A80069
:06061A00A901EB2108001C
:1006200083160317880189010C3003138500FF30FE
:1006300086008701880183128501FF3086008701CB
:1006400088010530A600A701BC228B1783168113F1
:0E0650008B150B10FF309600FF309500080050
:10065E000B3083120313A6000230A700FA30A80055
:06066E00A901EB210800C8
:100674000F3083120313A6000330A700FA30A8003A
:06068400A901EB210800B2
:10068A00DC3083120313A6000330A700FA30A80057
:06069A00A901EB2108009C
:1006A000743083120313A6000530A700FA30A800A7
:0606B000A901EB21080086
:1006B600933083120313A6000230A700F430A8007B
:1006C6000130A900EB212630A6000530A700F43042
:1006D600A8000130A900EB219630A6000430A7003F
:1006E600FA30A800A901EB211630A6000430A700B5
:1006F600FA30A800A901EB21DB30A6000330A700E1
:10070600FA30A800A901EB217030A6000330A7003B
:10071600FA30A800A901EB210F30A6000330A7008C
:10072600F430A8000130A900EB210F30A6000330F9
:10073600A700F430A8000130A900EB210F30A60075
:100746000330A700F430A8000130A900EB210330E4
:10075600FB008A30FC005530FD00FD0BB02BFC0B76
:10076600B02BFB0BB02B000000000F30A6000330AF
:10077600A700FA30A800A901EB219330A6000230A9
:10078600A700F430A8000130A900EB211630A6001E
:100796000430A700F430A8000130A900EB21DB30BB
:1007A600A6000330A700FA30A800A901EB2170309B
:1007B600A6000330A700FA30A800A901EB210F30EC
:1007C600A6000330A700FA30A800A901EB21BA3031
:1007D600A6000230A700FA30A800A901EB21933049
:1007E600A6000230A700DC30A8000530A900EB21E6
:1007F6000330FB008A30FC005530FD00FD0B012C58
:10080600FC0B012CFB0B012C000000004B30A6005A
:100816000230A700FA30A800A901EB219330A60008
:100826000230A700F430A8000130A900EB214B30BC
:10083600A6000230A700FA30A800A901EB219330E8
:10084600A6000230A700FA30A800A901EB21BA30B1
:10085600A6000230A700F430A8000130A900EB2161
:100866009330A6000230A700FA30A800A901EB21B8
:10087600BA30A6000230A700FA30A800A901EB2181
:100886000F30A6000330A700F430A8000130A900FD
:10089600EB21A430A6000330A700FA30A800A90176
:1008A600EB211630A6000430A700FA30A800A901F3
:1008B600EB219630A6000430A700F430A8000130E2
:1008C600A900EB21DC30A6000430A700FA30A8000E
:1008D600A901EB211630A6000430A700FA30A800C3
:1008E600A901EB21A430A6000330A700F430A8002C
:1008F6000130A900EB219330A6000230A700F430A6
:10090600A8000130A900EB21BA30A6000230A700EA
:10091600F430A8000130A900EB219330A600023084
:0E092600A700F430A8000130A900EB21080062
:10093400203083120313A6000630A700FA30A80063
:06094400A901EB210800EF
:10094A00963083120313A6000430A700FA30A800D9
:06095A00A901EB210800D9
:100960000B3083120313A6000230A700F430A80056
:100970000130A900EB210F30A6000330A700F430AE
:10098000A8000130A900EB21BA30A6000230A70070
:100990007D30A8000030A900EB219330A600023082
:1009A000A7007D30A8000030A900EB214B30A60045
:1009B0000230A7007D30A8000030A900EB211630DE
:1009C000A6000430A700F430A8000130A900EB21F4
:1009D0000F30A6000330A700FA30A800A901EB21D0
:1009E000BA30A6000230A7007D30A8000030A90070
:1009F000EB219330A6000230A7007D30A800003024
:100A0000A900EB214B30A6000230A7007D30A800E2
:100A10000030A900EB211630A6000430A700F43006
:100A2000A8000130A900EB210F30A6000330A70079
:100A3000FA30A800A901EB21BA30A6000230A700C5
:100A40007D30A8000030A900EB219330A6000230D1
:100A5000A7007D30A8000030A900EB21BA30A60025
:100A60000230A7007D30A8000030A900EB214B30F8
:100A7000A6000230A700F430A8000130A900EB2145
:100A80000230FB004530FC00A930FD00FD0B462D77
:100A9000FC0B462DFB0B462D000000000B30A60082
:100AA0000230A700F430A8000130A900EB210F307C
:100AB000A6000330A700F430A8000130A900EB2104
:100AC000BA30A6000230A7007D30A8000030A9008F
:100AD000EB219330A6000230A7007D30A800003043
:100AE000A900EB214B30A6000230A7007D30A80002
:100AF0000030A900EB211630A6000430A700F43026
:100B0000A8000130A900EB210F30A6000330A70098
:100B1000FA30A800A901EB21BA30A6000230A700E4
:100B20007D30A8000030A900EB219330A6000230F0
:100B3000A7007D30A8000030A900EB214B30A600B3
:100B40000230A7007D30A8000030A900EB2116304C
:100B5000A6000430A700F430A8000130A900EB2162
:100B60000F30A6000330A700FA30A800A901EB213E
:100B7000BA30A6000230A7007D30A8000030A900DE
:100B8000EB219330A6000230A7007D30A800003092
:100B9000A900EB21BA30A6000230A7007D30A800E2
:100BA0000030A900EB214B30A6000230A700F43042
:100BB000A8000130A900EB210230FB004530FC0009
:100BC000A930FD00FD0BE22DFC0BE22DFB0BE22D0D
:060BD00000000000080017
:100BD600263083120313A6000530A700FA30A800BA
:060BE600A901EB2108004B
:100BEC00483083120313A6000730A700FA30A80080
:060BFC00A901EB21080035
:100C0200BA3083120313A6000230A700FA30A800FC
:060C1200A901EB2108001E
:100C1800E03083120313A6000630A700FA30A800BC
:060C2800A901EB21080008
:100C2E00163083120313A6000430A700FA30A80072
:060C3E00A901EB210800F2
:100C44000B3083120313A6000230A7007730A800EC
:100C54000130A900EB210B30A6000230A7007D3043
:100C6400A8000030A900EB214B30A6000230A700F9
:100C7400F430A8000130A900EB210B30A6000230AB
:100C8400A700F430A8000130A900EB21BA30A60077
:100C94000230A700F430A8000130A900EB21933002
:100CA400A6000230A700E830A8000330A900EB2119
:100CB4000B30A6000230A7007730A8000130A9004D
:100CC400EB210B30A6000230A7007D30A8000030D5
:100CD400A900EB214B30A6000230A700F430A80095
:100CE4000130A900EB210B30A6000230A700F4303C
:100CF400A8000130A900EB210F30A6000330A700A3
:100D0400F430A8000130A900EB21BA30A60002306B
:100D1400A700E830A8000330A900EB210B30A6009F
:100D24000230A7007730A8000130A900EB210B3076
:100D3400A6000230A7007D30A8000030A900EB21F6
:100D44001630A6000430A700F430A8000130A90032
:100D5400EB217030A6000330A700F430A800013066
:100D6400A900EB21BA30A6000230A700F430A80095
:100D74000130A900EB219330A6000230A700F43023
:100D8400A8000130A900EB214B30A6000230A700D7
:100D9400F430A8000130A900EB21A430A6000330F0
:100DA400A7007730A8000130A900EB21A430A600E9
:100DB4000330A7007D30A8000030A900EB2170307B
:100DC400A6000330A700F430A8000130A900EB21ED
:100DD400BA30A6000230A700F430A8000130A90000
:100DE400EB210F30A6000330A700F430A800013037
:100DF400A900EB21BA30A6000230A700E830A80011
:080E04000330A900EB210800F6
:100E0C0010238312870188010519512F85192E2F64
:100E1C000618122F07162F238618162F8716052350
:100E2C0006191A2F0717D92286191E2F8717012684
:100E3C00061A222F08163A23861A262F8816FA220B
:100E4C00061B2A2F0817E422861B2E2F88174523F2
:100E5C00851D502F0618342F071617268618382F85
:100E6C008716A52406193C2F0717EB258619402F4A
:100E7C0087175023061A442F08169A24861A482FCF
:100E8C0088160C26061B4C2F0817F625861B502F90
:100E9C008817EF225C2F051D5C2F0618562F222673
:100EAC008618592FB02406195C2F5B23072F5D2F52
:04400E00F22F000786
:00000001FF
